:020000040800F2
:10000000B8060020F90C0008790500087B050008F7
:100010007F05000883050008870500080000000030
:100020000000000000000000000000008B05000838
:100030008D050008000000008F05000891050008EC
:10004000130D0008130D0008130D00080B0B00081A
:10005000130D0008130D0008130D00080B04000811
:10006000130D0008130D0008130D0008130D0008F0
:10007000130D0008130D0008130D0008130D0008E0
:10008000130D0008130D0008130D0008130D0008D0
:10009000130D0008130D0008130D0008130D0008C0
:1000A000130D0008130D0008130D0008130D0008B0
:1000B000130D0008130D0008130D0008130D0008A0
:1000C000130D0008130D0008130D0008130D000890
:1000D000130D00082D0C0008130D0008130D000867
:1000E0003704000861040008130D0008130D000810
:1000F000130D0008130D0008130D0008130D000860
:10010000130D0008130D0008130D0008130D00084F
:10011000130D0008130D0008130D0008130D00083F
:10012000130D0008130D0008130D0008130D00082F
:1001300000F002F800F042F80AA090E8000C8244B7
:100140008344AAF10107DA4501D100F037F8AFF294
:10015000090EBAE80F0013F0010F18BFFB1A43F0A5
:1001600001031847F01E0000101F0000103A24BFC2
:1001700078C878C1FAD8520724BF30C830C144BF0C
:1001800004680C607047000000230024002500264E
:10019000103A28BF78C1FBD8520728BF30C148BFEA
:1001A0000B607047642901F03386632901F0F38600
:1001B000002070471FB51FBD10B510BD01F00EFF28
:1001C0001146FFF7F7FF00F0A2F801F02CFF03B48F
:1001D000FFF7F2FF03BC00F01BFD000010B5B1A05B
:1001E00001F098FD4FF48060B24908804820C87043
:1001F000B14800F06FFE0A21002000F081FF4FF4AB
:100200008060AE490860002008710C204871012010
:100210008871084601F0FCFC2820A94908700020DC
:10022000487088700120C870084600F08AFD10BD33
:1002300010B54FF480609F4908800420C8709E4824
:1002400000F048FE4FF480609C490860002008716F
:100250000C20487100208871084601F0D9FC10BDBF
:1002600010B54FF4803000F0A3FF00F0E0FF04462B
:10027000012C0FD101F010F800BF392000F0BBFFB6
:100280000028FAD0022001F00AF800BF01F010F8AF
:100290000828FBD110BD10B50720864908804820EA
:1002A000C870884800F016FE10BD10B56020814966
:1002B00008801020C87003208870834800F00AFE70
:1002C0000421814800F0B5FE40217F4800F0B1FED6
:1002D00010BD10B50121022000F012FF0220774965
:1002E0000860002008710C204871012088710846C0
:1002F00001F08EFC0720724908700320487000202E
:1003000088700120C870084600F01BFD10BDB6B013
:1003100000F016FC0121342001F098F80121084674
:1003200001F094F8FFF7C1FFFFF7B5FFFFF7D1FF2A
:100330004FF4E13000F08AFC64A001F0EBFC09E02E
:1003400067A001F0E7FC4FF4487000F035FC67A0AF
:1003500001F0E0FC00F071FB0028F1D167A001F092
:10036000D9FC00F005FA01214FF0C05001F07BF8F4
:10037000012001F0E4FB012000F0F7FF44E06448B5
:10038000407863490978624AD279CDE90021029028
:100390005F48837982885FA104A801F0C7FC04A8A4
:1003A00001F0B8FC4FF47A7000F006FC01214548DA
:1003B00000F023FE40BB052000F0FEFB0121414878
:1003C00000F01BFE00BB58A001F0A4FC00BF0121FF
:1003D0003C4800F012FE0028F9D0012001F020FB7B
:1003E00000BF012001F011FB0028FAD001F0B6FA9D
:1003F000441D204601F0D6FA01F0ECFAFFF7EEFEBC
:100400000121084601F0AEFBB9E710B5022001F06A
:1004100065FC78B10A2000F0CFFB0221294800F0EA
:10042000ECFD20B9FFF71CFF43A001F073FC022094
:1004300001F065FC10BD10B54FF4806001F04EFC7A
:1004400068B1FFF70DFFFFF7F3FE052000F0B4FBE6
:100450003DA001F05FFC4FF4806001F050FC10BD46
:1004600010B54FF4003001F04AFC022001F0E0FA30
:1004700030B1012001F0A6FB10B1012001F0ACFB6E
:1004800001F0A8FA022001F0E3FA01F0A3FAFFF765
:10049000E7FEFFF7CDFE052000F08EFB30A001F057
:1004A00039FC10BDCFD6D4DAB9D8B1D5B4AEBFDAE5
:1004B0000D0A000000000020000801400800002094
:1004C000040000200010014000140140496E6974CE
:1004D0002055617274206973206F6B210D0A000032
:1004E000525443204552524F52210000525443204F
:1004F000547279696E672E2E2E000000496E697461
:1005000020525443206973206F6B210D0A000000B4
:100510004800002025642F25642F25642D25643A8A
:1005200025640D0A0000000020BDF8C8EBB5CDB968
:10053000A6BAC40D0A000000BDF8C8EBD5FDB3A3F0
:10054000C4A3CABD21000000CDA8B9FDB4AEBFDA76
:10055000BDF8C8EBD5FDB3A3C4A3CABD21000000FC
:10056000CDA8B9FD525443BDF8C8EBD5FDB3A3C423
:10057000A3CABD2100000000704700BFFEE700BF16
:10058000FEE700BFFEE700BFFEE770477047704719
:10059000704700000CB50020019000906B48006887
:1005A00040F480306949086000BF6848006800F482
:1005B000003000900198401C0190009818B90198F3
:1005C000B0F5A06FF1D16148006810F4003F02D08F
:1005D0000120009001E0002000900098012842D105
:1005E0005B48006840F01000594908600846006800
:1005F00020F0030008600846006840F00200086030
:10060000524840685149486008464068486008467A
:10061000406840F4806048600846406820F47C10E0
:1006200048600846406840F4E810486008460068A2
:1006300040F08070086000BF4448006810F0007F00
:10064000FAD04248406820F003004049486008461C
:10065000406840F00200486000BF3C48406800F03D
:100660000C000828F9D10CBD10B5FFF793FF10BDA1
:1006700010B53648006840F001003449086008466B
:1006800040683449084031494860084600683249AA
:1006900008402E4908600846006820F48020086061
:1006A0000846406820F4FE0048604FF41F00886050
:1006B000FFF7DAFF4FF000602849086010BD10B561
:1006C000002100200022214B5B6803F00C0121B1C6
:1006D000042906D0082928D107E0214B214C2360AA
:1006E00027E01F4B1F4C236023E0184B5B6803F48B
:1006F0007010164B5B6803F48032022303EB9040CA
:1007000022B9194B4343174C23600DE00F4B5B6834
:1007100013F4003F04D0144B4343124C236003E016
:100720000F4B43430F4C236003E00D4B0D4C2360F4
:1007300000BF00BF054B5B68C3F303130B4CE15CC8
:10074000084B1B68CB40074C236010BD00100240D3
:10075000002002400000FFF8FFFFF6FE08ED00E079
:1007600000127A001000002000093D001400002053
:100770000EB54FF4003001F0C2FA4FF40030019092
:1007800000208DF8080008208DF8090001208DF860
:100790000A0001A801F03CFA4FF4A06000F0CCFA86
:1007A00029208DF8000000208DF801008DF802004E
:1007B00001208DF80300684600F0C3FA0EBD08B5AD
:1007C00003208DF8000001208DF8010004208DF831
:1007D000020001208DF80300684600F0B2FA08BD5F
:1007E000F0B503460C461546642093FBF0F0C6B204
:1007F000642093FBF0F700FB1730C1B2132E02DD2B
:1008000001F16400C1B20846CF1701EB977701EB05
:10081000A707BAB2072092FBF0F700FB172082B2BD
:100820005719601EDFF8FCC21CF80000384482B281
:10083000CF1701EB9777BF10B1EB870703D1032CDC
:1008400001DA501E82B2072092FBF0F700FB17205E
:10085000C0B2F0BD0146CA1701EB92729210B1EB23
:10086000820212D1642091FBF0F200FB121050B909
:100870004FF4C87091FBF0F200FB121008B9012090
:1008800070470020FCE70120FAE70020F8E770B588
:1008900000260024002501F061F80646A248B6FBB8
:1008A000F0F4A2480088A0423CD0A0490C8040F25D
:1008B000B27510E02846FFF7CDFF40B1B4F5B77F21
:1008C00002D3A4F5B77404E0681C85B206E0A4F274
:1008D0006D14681C85B2B4F5B67FEBD800BF9448A0
:1008E0008580002516E092498888FFF7B3FF30B174
:1008F000012D04D11D2C01D31D3C09E00CE08D48D5
:10090000405DA04203D88B48405D241A00E003E01C
:10091000681C85B21C2CE6D200BF681C8449887113
:10092000601CC8718048B6FBF0F100FB11644FF405
:100930006160B4FBF0F07E4908704FF46160B4FB75
:10094000F0F100FB11403C21B0FBF1F07849487018
:100950004FF46160B4FBF0F100FB11403C21B0FBAF
:10096000F1F201FB1200724988700B46DA7999792D
:100970009888FFF735FF6E490872002070BD2DE999
:10098000F05F06460F4690469946DDE90AAB002423
:1009900040F2B270864203DB40F63300864202DD4D
:1009A0000120BDE8F09F40F2B2750AE02846FFF74B
:1009B00051FF10B16048044401E060480444681CE1
:1009C00085B2B542F2DB781EC7B2002510E0594867
:1009D000405D40F2A321484304EBC0143046FFF7CA
:1009E00039FF18B1012D01D14F480444681C85B26C
:1009F000BD42ECDBA8F1010040F2A321484304EB27
:100A0000C014C9EB4910C0EB092004EB0014CAEB79
:100A10000A1004EB80045C4401214FF0C05000F048
:100A200022FD012001F08BF8204600F0A0FF00F02D
:100A3000D1FFFFF72CFF0020B3E77CB50024042092
:100A400001F045F8A0F5A041503950D001214FF0F8
:100A5000C05000F008FD012001F071F801F002F82B
:100A6000012000F060FC04E0601CC4B20A2000F029
:100A7000A3F8412000F0BFFB0028F5D0FA2C01DBE1
:100A800001207CBD4FF4807000F069FC012000F073
:100A90006CFC00F09FFF00F0A6FF0121032000F096
:100AA0003DFF00F097FF00F046FF47F6FF7000F0B3
:100AB0006BFF00F08FFF3720302109231B22CDE987
:100AC0000010032140F2DF70FFF759FF00F082FFB2
:100AD00000F044FF00F11405284600F063FF00F029
:100AE00033FF45F25001042000F0E5FF07E000F07D
:100AF0007AFF0121084600F011FF00F06BFFFFF7BD
:100B00005EFEFFF7C4FE0020BBE710B5012000F039
:100B10008FFF08B1FFF7BBFE072000F099FF00F040
:100B200059FF10BD3C200008805101002400002026
:100B300048000020482000080085E2018033E101E0
:100B400010B56FF0040000F046F92D4800682D49FB
:100B5000B0FBF1F02C4908700846007800EB40012A
:100B6000C1EBC0104FF6FF7101EAC00027490880B1
:100B700010BD0146244A12784A434FF0E0235A61DF
:100B800000229A611A46126942F001021A6100BFFE
:100B90004FF0E022106910F0010F02D010F4803FF6
:100BA000F6D04FF0E022126922F001024FF0E0236C
:100BB0001A6100229A6170470146144A12884A431A
:100BC0004FF0E0235A6100229A611A46126942F0FE
:100BD00001021A6100BF4FF0E022106910F0010F0E
:100BE00002D010F4803FF6D04FF0E022126922F0DC
:100BF00001024FF0E0231A6100229A617047000061
:100C00001000002000127A0026000020280000209A
:100C1000014600BF704700BF344A128812F0400FEF
:100C2000FAD0C2B2314B1B1D1A80704710B540F28A
:100C300025512E4800F02EFE38B12C48001D0088AA
:100C4000C4B221462AA001F065F810BD10B586B0E7
:100C50000446012144F2040000F0F8FB234800F0B0
:100C600059FC4FF40070ADF8140003208DF8160005
:100C700018208DF8170005A91E4800F02BF94FF435
:100C80008060ADF8140004208DF8170005A91948FC
:100C900000F020F925208DF8000003208DF80100D8
:100CA0008DF8020001208DF80300684600F049F835
:100CB00001940020ADF80800ADF80A00ADF80C0072
:100CC000ADF810000C20ADF80E0001A9074800F0A7
:100CD00064FC012240F22551044800F0F6FC012199
:100CE000024800F0E6FC06B010BD000000380140EC
:100CF0002563000000080140094880470948004773
:100D0000FEE7FEE7FEE7FEE7FEE7FEE7FEE7FEE7BB
:100D1000FEE7FEE704480549054A064B7047000018
:100D20007106000831010008B8000020B806002054
:100D3000B8020020B802002031490143314A116055
:100D4000704770B5002100230F22C47804B32D4CE6
:100D5000246804F4E064C4F5E064210AC1F10403EA
:100D6000CA40447804FA03F184781440214309010D
:100D7000254C0678A155047804F01F050124AC40E9
:100D800005786D11AD0005F1E025C5F8004109E0D9
:100D9000047804F01F050124AC401C4D0678761140
:100DA00045F8264070BD1A4A0A400243154B1B1FE6
:100DB0001A60704739B1134A121D12680243114B71
:100DC0001B1D1A6006E00F4A121D126882430D4B6C
:100DD0001B1D1A607047042808D14FF0E0210969F3
:100DE00041F004014FF0E022116107E04FF0E021F3
:100DF000096921F004014FF0E02211617047000001
:100E00000000FA050CED00E000E400E080E100E005
:100E100080FFFF1F10B50446CC48844208D1012151
:100E2000042000F02DFB0021042000F029FB46E007
:100E3000C748844208D10121082000F021FB00218D
:100E4000082000F01DFB3AE0C248844208D101218D
:100E5000102000F015FB0021102000F011FB2EE007
:100E6000BD48844208D10121202000F009FB002167
:100E7000202000F005FB22E0B848844208D101217F
:100E8000402000F0FDFA0021402000F0F9FA16E0C1
:100E9000B348844208D10121802000F0F1FA0021FA
:100EA000802000F0EDFA0AE0AE48844207D101212B
:100EB000801500F0E5FA0021A01500F0E1FA10BD60
:100EC00010B50121084600F0DBFA0021012000F0F6
:100ED000D7FA10BD2DE9F04102460025002600207A
:100EE00000230024002791F803C00CF00F0591F8AF
:100EF00003C00CF0100CBCF1000F03D091F802C03D
:100F00004CEA050591F800C0BCF1000F31D014681F
:100F100000202BE04FF0010C0CFA00F3B1F800C0F8
:100F20000CEA03069E4220D183004FF00F0C0CFA0E
:100F300003F7BC4305FA03FC4CEA040491F803C030
:100F4000BCF1280F06D14FF0010C0CFA00FCC2F8DE
:100F500014C00AE091F803C0BCF1480F05D14FF06E
:100F6000010C0CFA00FCC2F810C0401C0828D1D3B8
:100F70001460B1F800C0BCF1FF0F34DD54680020EC
:100F80002EE000F1080C4FF0010808FA0CF3B1F85C
:100F900000C00CEA03069E4221D183004FF00F0CE3
:100FA0000CFA03F7BC4305FA03FC4CEA040491F87D
:100FB00003C0BCF1280F05D100F1080C08FA0CF8A9
:100FC000C2F8148091F803C0BCF1480F07D100F1BA
:100FD000080C4FF0010808FA0CF8C2F81080401C09
:100FE0000828CED35460BDE8F0814FF6FF71018030
:100FF000022181700421C17070470246002093686D
:101000000B400BB1012000E00020704701468868CA
:1010100080B2704702460020D3680B400BB101201C
:1010200000E0002070470146C86880B27047016147
:101030007047416170470AB1016100E0416170474A
:10104000C16070474FF480320A43826181618261DE
:1010500082698269704702460020434B18684FF648
:101060008073184040EA021008433F4B18607047F5
:101070003E49C8617047F0B50A46002300240021AC
:10108000002500F00046B6F1004F02D1364EF1695E
:1010900001E0354E7168C0F3034583B200F4401699
:1010A000B6F5401F08D121F070612F4E766826F00A
:1010B00070662D4F7E6012E000F48016B6F5801F3A
:1010C00006D1032606FA05F4A14341F0706106E05B
:1010D000460D360103FA06F6B14341F0706122B1C4
:1010E000460D360103FA06F6314300F00046B6F12C
:1010F000004F02D11C4EF16101E01B4E7160F0BD4A
:1011000030B500228B071C0F0F2303FA04F2164B95
:1011100008338C1053F824309343134C08348D104B
:1011200044F8253023468C1053F824308C07240FC4
:1011300000FA04F423430C4C08348D1044F8253095
:1011400030BD0A49DC3108607047000000080140EA
:10115000000C014000100140001401400018014043
:10116000001C01400020014000000140000020421E
:10117000DF48006840F00100DD490860084640682B
:10118000DC490840DA49486008460068DA49084006
:10119000D74908600846006820F4802008600846A7
:1011A000406820F4FE0048604FF41F0088607047DC
:1011B000CF49096821F48031CD4A11601146096890
:1011C00021F480211160B0F5803F03D0B0F5802F6D
:1011D0000ED106E0C649096841F48031C44A116065
:1011E00007E0C349096841F4A021C14A116000E049
:1011F00000BF00BF704710B5014600220023002049
:101200004A11012A02D1BA4C236806E0022A02D10F
:10121000B74C236A01E0B64C636A01F01F02012457
:1012200094401C400CB1012000E0002010BD38B5F6
:10123000002000900024002500BF3120FFF7DBFFD5
:1012400005460098401C00900098B0F5A06F01D0B2
:10125000002DF2D03120FFF7CEFF08B1012400E0CD
:101260000024204638BD01460020A14A106820F025
:10127000F80040EAC10010607047A049086070475C
:10128000024600209A4B586820F47C1042EA010381
:101290001843974B58607047984908667047014655
:1012A0000020934A506820F00300084350607047C4
:1012B0008F48406800F00C007047014600208C4ABF
:1012C000506820F0F000084350607047014600204D
:1012D000874A506820F4E060084350607047014638
:1012E0000020834A506820F4605040EAC1005060FA
:1012F000704729B17E4A527A02437D4B5A7204E00C
:101300007B4A527A82437A4B5A7270477B49D83172
:101310000860704701460020754A506820F440403C
:101320000843506070470021714A20321170704AA2
:1013300082F82010012802D004280AD104E00121FB
:101340006B4A2032117005E00521694A2032117084
:1013500000E000BF00BF70476949086070476449FA
:10136000096A0143624A116270476549443908605D
:10137000704730B500210022002400235C4D6D68C9
:1013800005F00C0121B1042905D0082923D105E07D
:101390005C4D056022E05B4D05601FE0544D6D68BB
:1013A00005F47012524D6D6805F48034022505EB8A
:1013B00092421CB9544D554305600BE04C4D6D688D
:1013C00005F400351DB1504D5543056002E04D4D0B
:1013D0005543056002E04B4D056000BF00BF444D22
:1013E0006D6805F0F0010909484D6B5C0568DD404A
:1013F00045603F4D6D6805F4E061090A434D6B5C43
:101400004568DD4085603A4D6D6805F46051C90A54
:101410003E4D6B5C4568DD40C560354D6D6805F43B
:101420004041890B3A4D6B5CC568B5FBF3F505612E
:1014300030BD29B12E4A526902432D4B5A6104E056
:101440002B4A526982432A4B5A61704729B1284A74
:1014500092690243264B9A6104E0254A92698243CD
:10146000234B9A61704729B1214AD2690243204B2C
:10147000DA6104E01E4AD26982431D4BDA6170478B
:1014800029B11B4AD2680243194BDA6004E0184ABA
:10149000D2688243164BDA60704729B1144A126948
:1014A0000243134B1A6104E0114A12698243104B44
:1014B0001A61704712494039086070470F49C86483
:1014C00070470B49C87170470948406A40F0807006
:1014D00007494862704701460020054A92680A4061
:1014E0000AB1012000E0002070470149887270476E
:1014F000001002400000FFF8FFFFF6FE000042422D
:101500008004424200127A0000093D0034000020AD
:101510004400002010B50446FB48844209D1012153
:101520008803FFF7ADFF00214FF48040FFF7A8FFCD
:1015300032E0F648844209D101214804FFF7ADFFAB
:1015400000214FF40030FFF7A8FF25E0F048844267
:1015500009D101218804FFF7A0FF00214FF480206A
:10156000FFF79BFF18E0EB48844209D10121C80432
:10157000FFF793FF00214FF40020FFF78EFF0BE0F1
:10158000E548844208D101210805FFF786FF0021C4
:101590004FF48010FFF781FF10BD2DE9F04786B0B2
:1015A00005460E460024A24600BFA1460027B0898A
:1015B00000B100BF2F462C8A4CF6FF700440F08823
:1015C00004432C82AC894EF6F3100440B088318974
:1015D0000843718908430443AC81AC8A4FF6FF404D
:1015E0000440B0890443AC8201A8FFF7C2FEC6489C
:1015F000874202D1DDF810A001E0DDF80CA0A88937
:1016000000F4004040B10AEBCA0000EB0A10316858
:101610004900B0FBF1F807E00AEBCA0000EB0A1042
:1016200031688900B0FBF1F86420B8FBF0F00401E8
:101630002009642101FB1089A88900F4004040B111
:10164000322000EBC900B0FBF1F000F007000443CA
:1016500008E0322000EB09106421B0FBF1F000F04B
:101660000F0004432C8106B0BDE8F0874FF41651FB
:10167000016000218180C18001810C214181002114
:101680008181704710B502460020108A4FF2FF0397
:1016900018400B884C8823438C882343CC882343F1
:1016A0001843108210BD0021018041808180C180DB
:1016B000704721B1828942F40052828104E082891C
:1016C0004DF6FF731A4082817047F0B5034600243F
:1016D00000260025002040F66A17B94200D100BF5D
:1016E0001846C1F3421401F01F06012707FA06F558
:1016F000012C01D10C3004E0022C01D1103000E0AB
:1017000014301AB107682F43076002E00768AF433F
:101710000760F0BD1AB1838A0B43838202E0838A9B
:101720008B4383827047028A4FF6F0731A4002821D
:10173000028A0A430282704782894FF2FF731A407D
:10174000828182890A438281704721B1828942F075
:101750000202828104E082894FF6FD731A40828181
:101760007047028A4FF6DF731A400282028A0A43E8
:101770000282704721B1028A42F48042028204E070
:10178000028A4BF6FF731A4002827047C1F30802C7
:101790008280704701468888C0F3080070478189BD
:1017A00041F0010181817047028BD2B20283028B2A
:1017B00042EA012202837047028B02F47F420283D5
:1017C000028B0A430283704721B1828A42F02002D1
:1017D000828204E0828A4FF6DF731A408282704769
:1017E00021B1828A42F01002828204E0828A4FF69E
:1017F000EF731A408282704721B1828A42F0080258
:10180000828204E0828A4FF6F7731A408282704720
:1018100021B1828942F40042828103E08289C2F3CD
:101820000E028281704721B1828A42F40062828274
:1018300004E0828A4FF2FF731A4082827047828AE4
:101840004FF6FB731A408282828A0A438282704773
:1018500021B1828A42F00202828204E0828A4FF63B
:10186000FD731A408282704702460020B1F5007F66
:1018700000D100BF13880B400BB1012000E0002015
:10188000704701F40072B2F5007F00D100BFCA4377
:101890000280704770B50246002400230025002016
:1018A00040F66A16B14200D100BFC1F3421501F003
:1018B0001F03012606FA03F3012D02D19689334056
:1018C00006E0022D02D1168A334001E0968A3340A9
:1018D0000C12012606FA04F41688344013B10CB138
:1018E000012000E0002070BD10B50022002340F66A
:1018F0006A14A14200D100BF0A1201249440A3B28D
:10190000DC43048010BD000000380140004400406A
:1019100000480040004C00400050004029B1504AAF
:10192000128802434E4B1A8004E04D4A12888243CB
:101930004B4B1A8070474A48001D008840F0100049
:101940004749091D088070474548001D00884FF62B
:10195000EF7108404249091D088070470021404846
:101960001C300188001F008841EA0040704700B524
:101970000246FFF7E0FF100C394918310880091DB5
:101980000A80FFF7E1FF00BD00B50246FFF7D3FF75
:10199000C2F30340324908310880091D0A80FFF76D
:1019A000D3FF00BD00B50246FFF7C5FF100C2C4960
:1019B00020310880091D0A80FFF7C6FF00BD002006
:1019C0002749103109880907080B2549143109886E
:1019D0000843704700BF2248001D008800F0200027
:1019E0000028F8D070471E48001D00884FF6F77198
:1019F00008401B49091D088000BF1948001D0088C8
:101A000000F008000028F8D0704701460020144A72
:101A1000121D12880A400AB1012000E00020704720
:101A20000F49091D098881430D4A121D1180704715
:101A3000014600200A4A121D12880A40D0B2084A04
:101A400012880A4012B108B1012000E0002070475E
:101A50000349091D09888143014A121D11807047FD
:101A60000028004010B50120FFF724FD0020FFF7FB
:101A700021FD10BD2A49086070472949091F0860E7
:101A80007047274984310860704701460020254A85
:101A900010884FF67F4210400843224A108070475A
:101AA000014600201F4A10884FF6807210400843FC
:101AB0001C4A1080704708B500220092194A2C3A3F
:101AC0000092009A02440092009A116008BD08B585
:101AD00001460020009013482C38009000980844DC
:101AE00000900098008808BD0D489C300068C0B286
:101AF00070470C480830008840F00100094908315F
:101B0000088070470648A0300068C0B2704705489A
:101B10000830008840F00200024908310880704710
:101B200004860D422C6C004010B501210807FFF718
:101B3000B4FC00214FF08050FFF7AFFC10BD2A49E4
:101B40000862704728490861704701460020274A0B
:101B5000106820F0E0000843106070472249A0316F
:101B60000860704710B502460020204B186820F02E
:101B70000300104318601E4B1B6843F004031C4C09
:101B80002360012901D130BF00E020BF184B1B6842
:101B900023F00403164C236010BD1448006840F085
:101BA0000400124908600846006840F0020008601E
:101BB0000F48006840F004000D49086000BF00BFF6
:101BC00030BF704701460020084A52680A400AB1F7
:101BD000012000E0002070470449096841EA8001C3
:101BE000024A11607047000000000E420070004081
:101BF00010ED00E0002044490860091D0860091D3F
:101C00000860091D086041483F4914310860704769
:101C100000213D498279002A3AD00A4612680368B9
:101C20009A430B461A600A1D126803689A430B1DFB
:101C30001A60027911440A6803681A430A60324A3A
:101C40000832126803689A432F4B08331A601A1D32
:101C5000126803689A432C4B0C331A604279102A9D
:101C60000ED11A1F126803681A43274B08331A60F3
:101C70001A1D126803681A43234B0C331A600DE0D7
:101C80002149427911440A6803681A430A6005E051
:101C9000027911440A6803689A430A607047002178
:101CA000016001710C214171002181717047164959
:101CB000103109680143144A10321160704701461F
:101CC0000020114A143212680A400AB1012000E0D3
:101CD000002070470C49143108607047014600200D
:101CE0000022094B1B6803EA0102074B14331B68EF
:101CF0000B4013B10AB1012000E0002070470249F7
:101D0000143108607047000000040140FFFF0F001D
:101D1000704700000FB4044910B503AA029800F000
:101D200047F910BC5DF814FB300000200FB41CB55F
:101D3000074B06AA7B4469460090059800F009F914
:101D40000020694600F018F91CBC5DF814FB000087
:101D5000410200002DE9F0410E46044600202062B9
:101D60002046E168884730B3252805D0D4E9012111
:101D70009047206A401CF2E7E16820460027884728
:101D8000050018D0A5F14100192802D820354FF4DC
:101D900000673246294620462760FEF703FA40B125
:101DA000012804D0F61D26F007060836D8E7361DB0
:101DB000D6E72846DAE7206ABDE8F08170B50C4620
:101DC0000546012A05D02878800600D5EA69002357
:101DD00002E0012305E05B1C934202D2E05C002894
:101DE000F9D1A869E618C01AA861286A18442862BF
:101DF0002846AFF3008004E0D5E9012114F8010B77
:101E00009047B442F8D32846AFF3008070BD00007D
:101E10002DE9F0410646002410687529314616A5C3
:101E200011D0AFF30080002803DAC0F1000013A541
:101E300007E031688A0701D511A502E0490704D5FA
:101E400010A5012401E0AFF3008000210A2306F170
:101E5000240707E0B0FBF3F203FB120030307854A4
:101E60001046491C0028F5D123462A463046BDE8D5
:101E7000F04100F00DB80000000000002D0000004F
:101E80002B0000002000000070477047704770472B
:101E90002DE9F0470D4699469246044600F1240884
:101EA0000168880604D5E06921F01001216000E096
:101EB0000120A84202DDA0EB050700E00027A16990
:101EC00007EB050202EB0900A1EB0000A0612078FE
:101ED000C00602D42046AFF30080002608E0D4E913
:101EE00001211AF806009047206A401C761C2062E7
:101EF0004E45F4DB2078C0060AD52046AFF30080BB
:101F000006E0D4E9012130209047206A401C20627D
:101F1000381EA7F10107F4DC07E0D4E9012118F825
:101F200005009047206A401C2062281EA5F101058B
:101F3000F3DC2046AFF300802078000602D50220B3
:101F4000BDE8F0870120FBE701694A1C02610878BF
:101F5000704700B58FB0CDE90131002105910549E9
:101F60007944CDE9031011466846FFF7F3FE0FB040
:101F700000BD0000E5FFFFFF0A6802F8010B0A60E0
:101F8000704710B5436913B1AFF3008001E0FFF76C
:101F900015FF012010BD127800F124010A70002203
:101FA0004A700122EDE711684FF0FF32E9E70000C7
:101FB000074B70B50D467B44FFF7CBFF0446284620
:101FC00000F008F810B14FF0FF3070BD204670BD32
:101FD0005DECFFFF007B00F080007047754600F06D
:101FE00029F8AE4605006946534620F007008546AD
:101FF00018B020B5FEF78EFEBDE820404FF0000679
:102000004FF000074FF000084FF0000B21F00701E0
:10201000AC46ACE8C009ACE8C009ACE8C009ACE823
:10202000C0098D4670470446AFF300802046FEF796
:10203000CEF800000048704754000020000303065B
:1020400001040602050003051F1C1F1E1F1E1F1F83
:102050001E1F1E1F74200008000000204800000002
:102060006C010008BC200008480000207006000039
:1020700088010008000000000000000000000000CF
:102080000000000000A24A04000000000000000060
:102090000102030406070809000000000000000018
:1020A0000000000000000000000000000102030426
:0C20B000010203040607080902040608E8
:0400000508000131BD
:00000001FF
